:100000000C942A000C9447000C9447000C94470071
:100010000C9447000C9447000C9447000C94470044
:100020000C9447000C9447000C9447000C94470034
:100030000C9447000C945E020C9447000C9447000B
:100040000C9447000C9447000C9447000C94470014
:100050000C94470011241FBECFE5D8E0DEBFCDBF12
:1000600011E0A0E6B0E0E0E3F5E002C005900D92FB
:10007000A630B107D9F721E0A6E0B1E001C01D929A
:10008000A730B207E1F70E9404010C9496020C9489
:10009000000041111CC0813059F028F0823069F015
:1000A000833081F008958AB3609568236ABB089510
:1000B00087B36095682367BB089584B36095682310
:1000C00064BB089581B36095682361BB08954F3F79
:1000D000B9F4813051F028F0823059F0833069F062
:1000E00008958AB3682B6ABB089587B3682B67BBF2
:1000F000089584B3682B64BB089581B3682B61BBFA
:100100000895813071F028F0823099F08330C9F081
:1001100008958BB3962F909589234623482B4BBB8C
:10012000089588B3962F909589234623482B48BB82
:10013000089585B3962F909589234623482B45BB78
:10014000089582B3962F909589234623482B42BB6E
:100150000895813049F028F0823049F0833051F021
:100160000CC089B368230AC086B3682307C083B371
:10017000682304C080B3682301C06FEF81E0611180
:1001800001C080E081950895813061F028F08230CF
:1001900079F0833099F008954FEF60E181E00E949B
:1001A000810008954FEF60E281E00E948100089590
:1001B0004FEF60E481E00E94810008954FEF60E816
:1001C00081E00E9481000895813061F028F0823042
:1001D00079F0833099F0089540E060E181E00E9479
:1001E0008100089540E060E281E00E94810008956E
:1001F00040E060E481E00E948100089540E060E812
:1002000081E00E9481000895CF93DF93CDB7DEB7E0
:1002100028970FB6F894DEBF0FBECDBF789480E06C
:100220000E94950181E00E94950186E08B831E82E9
:1002300087E688871D8219821C8288E18A831F8253
:10024000CE0101960E94270200E020E240E062E039
:1002500080E50E94E30181E690E00E944F028FE674
:1002600090E00E944F020E9447028093060180E9BD
:1002700090E00E944F02809106010E94430280910B
:1002800006010E942302809106010E9423028091B0
:1002900006010E94230210E380E00E94B50181E084
:1002A0000E94B5010E9447028B32D9F48091060169
:1002B0008F5F8093060183EA90E00E944F02809155
:1002C00006010E944302809106010E9423022FEF43
:1002D00089E698E1215080409040E1F700C000009D
:1002E000DBCF8D32C9F680910601815080930601E3
:1002F00080910601803318F4109306010CC084EC41
:1003000090E00E944F02809106010E94430280917A
:1003100006010E9423022FEF89E698E121508040D8
:100320009040E1F700C00000B7CF813061F028F0C5
:10033000823079F0833099F0089540E060E182E006
:100340000E944900089540E064E081E00E94490075
:10035000089540E064E080E00E944900089540E094
:1003600068E080E00E9449000895813069F028F03B
:10037000823089F08330B1F01CC060E182E00E94DD
:10038000A900811118C0089564E081E00E94A900CD
:10039000811113C0089564E080E00E94A9008111DA
:1003A0000EC0089568E080E00E94A900811109C094
:1003B000089580E0089582E0089582E0089582E043
:1003C000089582E00895FF920F931F93CF93DF93D8
:1003D000C82FD62FF42E122F1DB8803491F08035FF
:1003E00021F540E060E481E00E9449004FEF60E2C7
:1003F00081E00E9449004FEF60E881E00E944900DF
:1004000014C04FEF60E481E00E94490040E060E2E8
:1004100081E00E94490040E060E881E00E944900DC
:1004200040E060E181E00E9449000F29102BD12BB0
:10043000CD2BCDB98FB780688FBFDF91CF911F9142
:100440000F91FF9008958FB9779BFECF0895FC011F
:1004500010BC1AB89AB18181892B8AB99AB1868168
:10046000892B8AB9878189B910BC20B58081948194
:10047000892B80689281892B9581892B9381892B87
:10048000822B80BD08955D9BFECF8CB908955F9B44
:10049000FECF8CB180936000809160000895CF936F
:1004A000DF93EC018881882331F021960E9443027A
:1004B00089918111FBCFDF91CF9108951F920F9207
:1004C0000FB60F9211242F933F934F935F936F9327
:1004D0007F938F939F93AF93BF93EF93FF938CB1D1
:1004E00080936000809160008F3641F480E00E942C
:1004F000C40085EE90E00E944F0207C080E00E9499
:10050000E40085EF90E00E944F02FF91EF91BF91D0
:10051000AF919F918F917F916F915F914F913F919B
:100520002F910F900FBE0F901F901895F894FFCF4A
:10053000302057656C636F6D652E2E2E200A0020CB
:10054000506C6561736520456E74657220746865D2
:1005500020496E697469616C2053706565640A0096
:10056000596F75206861766520656E746572656483
:10057000200A0020537065656420496E6372656DC2
:10058000656E746564204E657720537065656420E0
:100590003D200A00205370656564204465637265E0
:1005A0006D656E746564204E657720537065656473
:1005B000203D200A00204C4544204953204F4E2026
:1005C0003A44200A00204C4544204953204F4646D7
:0605D000203A28200A0079
:00000001FF
